{
  "contractName": "CrowdFunder",
  "abi": [
    {
      "constant": true,
      "inputs": [],
      "name": "creator",
      "outputs": [
        {
          "name": "",
          "type": "address"
        }
      ],
      "payable": false,
      "stateMutability": "view",
      "type": "function"
    },
    {
      "constant": true,
      "inputs": [],
      "name": "minimumToRaise",
      "outputs": [
        {
          "name": "",
          "type": "uint256"
        }
      ],
      "payable": false,
      "stateMutability": "view",
      "type": "function"
    },
    {
      "constant": true,
      "inputs": [],
      "name": "raiseBy",
      "outputs": [
        {
          "name": "",
          "type": "uint256"
        }
      ],
      "payable": false,
      "stateMutability": "view",
      "type": "function"
    },
    {
      "constant": true,
      "inputs": [],
      "name": "completeAt",
      "outputs": [
        {
          "name": "",
          "type": "uint256"
        }
      ],
      "payable": false,
      "stateMutability": "view",
      "type": "function"
    },
    {
      "constant": true,
      "inputs": [],
      "name": "state",
      "outputs": [
        {
          "name": "",
          "type": "uint8"
        }
      ],
      "payable": false,
      "stateMutability": "view",
      "type": "function"
    },
    {
      "constant": true,
      "inputs": [],
      "name": "totalRaised",
      "outputs": [
        {
          "name": "",
          "type": "uint256"
        }
      ],
      "payable": false,
      "stateMutability": "view",
      "type": "function"
    },
    {
      "constant": true,
      "inputs": [],
      "name": "fundRecipient",
      "outputs": [
        {
          "name": "",
          "type": "address"
        }
      ],
      "payable": false,
      "stateMutability": "view",
      "type": "function"
    },
    {
      "inputs": [
        {
          "name": "timeInHoursForFundraising",
          "type": "uint256"
        },
        {
          "name": "_campaignUrl",
          "type": "string"
        },
        {
          "name": "_fundRecipient",
          "type": "address"
        },
        {
          "name": "_minimumToRaise",
          "type": "uint256"
        }
      ],
      "payable": false,
      "stateMutability": "nonpayable",
      "type": "constructor"
    },
    {
      "anonymous": false,
      "inputs": [
        {
          "indexed": false,
          "name": "addr",
          "type": "address"
        },
        {
          "indexed": false,
          "name": "amount",
          "type": "uint256"
        },
        {
          "indexed": false,
          "name": "currentTotal",
          "type": "uint256"
        }
      ],
      "name": "LogFundingReceived",
      "type": "event"
    },
    {
      "anonymous": false,
      "inputs": [
        {
          "indexed": false,
          "name": "winnerAddress",
          "type": "address"
        }
      ],
      "name": "LogWinnerPaid",
      "type": "event"
    },
    {
      "constant": false,
      "inputs": [],
      "name": "contribute",
      "outputs": [
        {
          "name": "id",
          "type": "uint256"
        }
      ],
      "payable": true,
      "stateMutability": "payable",
      "type": "function"
    },
    {
      "constant": false,
      "inputs": [],
      "name": "checkIfFundingCompleteOrExpired",
      "outputs": [],
      "payable": false,
      "stateMutability": "nonpayable",
      "type": "function"
    },
    {
      "constant": false,
      "inputs": [],
      "name": "payOut",
      "outputs": [],
      "payable": false,
      "stateMutability": "nonpayable",
      "type": "function"
    },
    {
      "constant": false,
      "inputs": [
        {
          "name": "id",
          "type": "uint256"
        }
      ],
      "name": "getRefund",
      "outputs": [
        {
          "name": "",
          "type": "bool"
        }
      ],
      "payable": false,
      "stateMutability": "nonpayable",
      "type": "function"
    },
    {
      "constant": false,
      "inputs": [],
      "name": "removeContract",
      "outputs": [],
      "payable": false,
      "stateMutability": "nonpayable",
      "type": "function"
    }
  ],
  "bytecode": "0x60806040526000600460006101000a81548160ff0219169083600281111561002357fe5b021790555034801561003457600080fd5b50604051610b00380380610b0083398101806040528101908080519060200190929190805182019291906020018051906020019092919080519060200190929190505050336000806101000a81548173ffffffffffffffffffffffffffffffffffffffff021916908373ffffffffffffffffffffffffffffffffffffffff16021790555081600160006101000a81548173ffffffffffffffffffffffffffffffffffffffff021916908373ffffffffffffffffffffffffffffffffffffffff160217905550826003908051906020019061010f929190610136565b50670de0b6b3a76400008102600281905550603c84024201600681905550505050506101db565b828054600181600116156101000203166002900490600052602060002090601f016020900481019282601f1061017757805160ff19168380011785556101a5565b828001600101855582156101a5579182015b828111156101a4578251825591602001919060010190610189565b5b5090506101b291906101b6565b5090565b6101d891905b808211156101d45760008160009055506001016101bc565b5090565b90565b610916806101ea6000396000f3006080604052600436106100ba576000357c0100000000000000000000000000000000000000000000000000000000900463ffffffff16806302d05d3f146100bf578063105ea5401461011657806337f944cc146101415780634c4cea5a1461016c57806386f3258614610197578063c19d93fb146101ae578063c2052403146101e7578063c5c4744c146101fe578063d2f0be9914610229578063d7bb99ba1461026e578063d939c9601461028c578063fe389e09146102e3575b600080fd5b3480156100cb57600080fd5b506100d46102fa565b604051808273ffffffffffffffffffffffffffffffffffffffff1673ffffffffffffffffffffffffffffffffffffffff16815260200191505060405180910390f35b34801561012257600080fd5b5061012b61031f565b6040518082815260200191505060405180910390f35b34801561014d57600080fd5b50610156610325565b6040518082815260200191505060405180910390f35b34801561017857600080fd5b5061018161032b565b6040518082815260200191505060405180910390f35b3480156101a357600080fd5b506101ac610331565b005b3480156101ba57600080fd5b506101c36103a7565b604051808260028111156101d357fe5b60ff16815260200191505060405180910390f35b3480156101f357600080fd5b506101fc6103ba565b005b34801561020a57600080fd5b506102136104f7565b6040518082815260200191505060405180910390f35b34801561023557600080fd5b50610254600480360381019080803590602001909291905050506104fd565b604051808215151515815260200191505060405180910390f35b61027661065d565b6040518082815260200191505060405180910390f35b34801561029857600080fd5b506102a16107db565b604051808273ffffffffffffffffffffffffffffffffffffffff1673ffffffffffffffffffffffffffffffffffffffff16815260200191505060405180910390f35b3480156102ef57600080fd5b506102f8610801565b005b6000809054906101000a900473ffffffffffffffffffffffffffffffffffffffff1681565b60025481565b60065481565b60075481565b600254600554111561036e576002600460006101000a81548160ff0219169083600281111561035c57fe5b02179055506103696103ba565b61039e565b60065442111561039d576001600460006101000a81548160ff0219169083600281111561039757fe5b02179055505b5b42600781905550565b600460009054906101000a900460ff1681565b60028060028111156103c857fe5b600460009054906101000a900460ff1660028111156103e357fe5b1415156103ef57600080fd5b600160009054906101000a900473ffffffffffffffffffffffffffffffffffffffff1673ffffffffffffffffffffffffffffffffffffffff166108fc3073ffffffffffffffffffffffffffffffffffffffff16319081150290604051600060405180830381858888f1935050505015801561046e573d6000803e3d6000fd5b507fcc2a9192e91e4dd58845fd890b297de7bfda33e9f07f14bb2e4fe2237c86723d600160009054906101000a900473ffffffffffffffffffffffffffffffffffffffff16604051808273ffffffffffffffffffffffffffffffffffffffff1673ffffffffffffffffffffffffffffffffffffffff16815260200191505060405180910390a150565b60055481565b600080600180600281111561050e57fe5b600460009054906101000a900460ff16600281111561052957fe5b14151561053557600080fd5b8360088054905011801561054a575060008410155b80156105775750600060088581548110151561056257fe5b90600052602060002090600202016000015414155b151561058257600080fd5b60088481548110151561059157fe5b906000526020600020906002020160000154915060006008858154811015156105b657fe5b9060005260206000209060020201600001819055506008848154811015156105da57fe5b906000526020600020906002020160010160009054906101000a900473ffffffffffffffffffffffffffffffffffffffff1673ffffffffffffffffffffffffffffffffffffffff166108fc839081150290604051600060405180830381858888f19350505050158015610651573d6000803e3d6000fd5b50600192505050919050565b60008080600281111561066c57fe5b600460009054906101000a900460ff16600281111561068757fe5b14151561069357600080fd5b600860408051908101604052803481526020013373ffffffffffffffffffffffffffffffffffffffff16815250908060018154018082558091505090600182039060005260206000209060020201600090919290919091506000820151816000015560208201518160010160006101000a81548173ffffffffffffffffffffffffffffffffffffffff021916908373ffffffffffffffffffffffffffffffffffffffff160217905550505050346005600082825401925050819055507f304e48bb03eae5e9bf3575d270648664895983e116a51773a65e9f3341b3b40e3334600554604051808473ffffffffffffffffffffffffffffffffffffffff1673ffffffffffffffffffffffffffffffffffffffff168152602001838152602001828152602001935050505060405180910390a16107cc610331565b60016008805490500391505090565b600160009054906101000a900473ffffffffffffffffffffffffffffffffffffffff1681565b6000809054906101000a900473ffffffffffffffffffffffffffffffffffffffff1673ffffffffffffffffffffffffffffffffffffffff163373ffffffffffffffffffffffffffffffffffffffff1614151561085c57600080fd5b6001600281111561086957fe5b600460009054906101000a900460ff16600281111561088457fe5b14806108b4575060028081111561089757fe5b600460009054906101000a900460ff1660028111156108b257fe5b145b80156108c657504262dd7c0060075401105b15156108d157600080fd5b3373ffffffffffffffffffffffffffffffffffffffff16ff00a165627a7a7230582017a1993313441faaa60abdd00e63e1d9d27d12d9298d98d545addcd77eb944030029",
  "source": "pragma solidity ^0.4.24;\r\n\r\ncontract CrowdFunder {\r\n    address public creator;\r\n    address public fundRecipient;\r\n    uint public minimumToRaise;\r\n    string campaignUrl;\r\n    byte constant version = 1;\r\n\r\n    enum State {\r\n        Fundraising,\r\n        ExpiredRefund,\r\n        Successful\r\n    }\r\n    struct Contribution {\r\n        uint amount;\r\n        address contributor;\r\n    }\r\n\r\n    State public state = State.Fundraising;\r\n    uint public totalRaised;\r\n    uint public raiseBy;\r\n    uint public completeAt;\r\n    Contribution[] contributions;\r\n\r\n    event LogFundingReceived(address addr, uint amount, uint currentTotal);\r\n    event LogWinnerPaid(address winnerAddress);\r\n\r\n    modifier inState(State _state) {\r\n        require(state == _state);\r\n        _;\r\n    }\r\n\r\n    modifier isCreator() {\r\n        require(msg.sender == creator);\r\n        _;\r\n    }\r\n\r\n    modifier atEndOfLifecycle() {\r\n        require(((state == State.ExpiredRefund || state == State.Successful) &&\r\n        completeAt + 24 weeks < now));\r\n        _;\r\n    }\r\n\r\n    function CrowdFunder(uint timeInHoursForFundraising, string _campaignUrl, address _fundRecipient, uint _minimumToRaise) public {\r\n        creator = msg.sender;\r\n        fundRecipient = _fundRecipient;\r\n        campaignUrl = _campaignUrl;\r\n        minimumToRaise = _minimumToRaise * 1000000000000000000;\r\n        raiseBy = now + (timeInHoursForFundraising * 1 minutes);\r\n    }\r\n\r\n    function contribute() public payable inState(State.Fundraising) returns(uint256 id) {\r\n        contributions.push(\r\n            Contribution({\r\n            amount: msg.value,\r\n            contributor: msg.sender\r\n            })\r\n        );\r\n        totalRaised += msg.value;\r\n\r\n        LogFundingReceived(msg.sender, msg.value, totalRaised);\r\n\r\n        checkIfFundingCompleteOrExpired();\r\n        return (contributions.length - 1);\r\n    }\r\n\r\n    function checkIfFundingCompleteOrExpired() public{\r\n        if (totalRaised > minimumToRaise) {\r\n            state = State.Successful;\r\n            payOut();\r\n        } else if ( now > raiseBy )  {\r\n            state = State.ExpiredRefund;\r\n        }\r\n        completeAt = now;\r\n    }\r\n\r\n    function payOut() public inState(State.Successful){\r\n        fundRecipient.transfer(this.balance);\r\n        LogWinnerPaid(fundRecipient);\r\n    }\r\n\r\n    function getRefund(uint256 id) inState(State.ExpiredRefund) public returns(bool){\r\n        require(contributions.length > id && id >= 0 && contributions[id].amount != 0 );\r\n\r\n        uint256 amountToRefund = contributions[id].amount;\r\n        contributions[id].amount = 0;\r\n\r\n        contributions[id].contributor.transfer(amountToRefund);\r\n\r\n        return true;\r\n    }\r\n\r\n    function removeContract() public isCreator() atEndOfLifecycle(){\r\n        selfdestruct(msg.sender);\r\n    }\r\n}",
  "sourcePath": "C:\\Users\\user\\crowdfund-dapp-master\\contracts\\CrowdFunder.sol",
  "compiler": {
    "name": "solc",
    "version": "0.4.24+commit.e67f0147.Emscripten.clang"
  },
  "schemaVersion": "2.0.1",
  "updatedAt": "2018-08-22T04:48:45.237Z"
}