{
  "contractName": "FundingHub",
  "abi": [
    {
      "constant": true,
      "inputs": [
        {
          "name": "",
          "type": "uint256"
        }
      ],
      "name": "projects",
      "outputs": [
        {
          "name": "",
          "type": "address"
        }
      ],
      "payable": false,
      "stateMutability": "view",
      "type": "function"
    },
    {
      "constant": true,
      "inputs": [],
      "name": "numOfProjects",
      "outputs": [
        {
          "name": "",
          "type": "uint256"
        }
      ],
      "payable": false,
      "stateMutability": "view",
      "type": "function"
    },
    {
      "constant": true,
      "inputs": [],
      "name": "owner",
      "outputs": [
        {
          "name": "",
          "type": "address"
        }
      ],
      "payable": false,
      "stateMutability": "view",
      "type": "function"
    },
    {
      "inputs": [],
      "payable": false,
      "stateMutability": "nonpayable",
      "type": "constructor"
    },
    {
      "anonymous": false,
      "inputs": [
        {
          "indexed": false,
          "name": "id",
          "type": "uint256"
        },
        {
          "indexed": false,
          "name": "title",
          "type": "string"
        },
        {
          "indexed": false,
          "name": "addr",
          "type": "address"
        },
        {
          "indexed": false,
          "name": "creator",
          "type": "address"
        }
      ],
      "name": "LogProjectCreated",
      "type": "event"
    },
    {
      "anonymous": false,
      "inputs": [
        {
          "indexed": false,
          "name": "projectAddress",
          "type": "address"
        },
        {
          "indexed": false,
          "name": "contributor",
          "type": "address"
        },
        {
          "indexed": false,
          "name": "amount",
          "type": "uint256"
        }
      ],
      "name": "LogContributionSent",
      "type": "event"
    },
    {
      "anonymous": false,
      "inputs": [
        {
          "indexed": false,
          "name": "message",
          "type": "string"
        }
      ],
      "name": "LogFailure",
      "type": "event"
    },
    {
      "constant": false,
      "inputs": [
        {
          "name": "_fundingGoal",
          "type": "uint256"
        },
        {
          "name": "_deadline",
          "type": "uint256"
        },
        {
          "name": "_title",
          "type": "string"
        }
      ],
      "name": "createProject",
      "outputs": [
        {
          "name": "projectAddress",
          "type": "address"
        }
      ],
      "payable": true,
      "stateMutability": "payable",
      "type": "function"
    },
    {
      "constant": false,
      "inputs": [
        {
          "name": "_projectAddress",
          "type": "address"
        }
      ],
      "name": "contribute",
      "outputs": [
        {
          "name": "successful",
          "type": "bool"
        }
      ],
      "payable": true,
      "stateMutability": "payable",
      "type": "function"
    }
  ],
  "bytecode": "0x608060405234801561001057600080fd5b50336000806101000a81548173ffffffffffffffffffffffffffffffffffffffff021916908373ffffffffffffffffffffffffffffffffffffffff16021790555060006001819055506122fb806100686000396000f30060806040526004361061006d576000357c0100000000000000000000000000000000000000000000000000000000900463ffffffff168063107046bd1461007257806320f7a505146100df57806373e888fd1461018f57806383d3cfd3146101dd5780638da5cb5b14610208575b600080fd5b34801561007e57600080fd5b5061009d6004803603810190808035906020019092919050505061025f565b604051808273ffffffffffffffffffffffffffffffffffffffff1673ffffffffffffffffffffffffffffffffffffffff16815260200191505060405180910390f35b61014d6004803603810190808035906020019092919080359060200190929190803590602001908201803590602001908080601f0160208091040260200160405190810160405280939291908181526020018383808284378201915050505050509192919290505050610292565b604051808273ffffffffffffffffffffffffffffffffffffffff1673ffffffffffffffffffffffffffffffffffffffff16815260200191505060405180910390f35b6101c3600480360381019080803573ffffffffffffffffffffffffffffffffffffffff169060200190929190505050610628565b604051808215151515815260200191505060405180910390f35b3480156101e957600080fd5b506101f2610a4e565b6040518082815260200191505060405180910390f35b34801561021457600080fd5b5061021d610a54565b604051808273ffffffffffffffffffffffffffffffffffffffff1673ffffffffffffffffffffffffffffffffffffffff16815260200191505060405180910390f35b60026020528060005260406000206000915054906101000a900473ffffffffffffffffffffffffffffffffffffffff1681565b600080600085111515610332577fa2db52a45d71264723caeac03c235d51bb30cff5e1ac71c97a5842ec94fbb6af60405180806020018281038252602b8152602001807f50726f6a6563742066756e64696e6720676f616c206d7573742062652067726581526020017f61746572207468616e203000000000000000000000000000000000000000000081525060400191505060405180910390a1600080fd5b83431015156103ce577fa2db52a45d71264723caeac03c235d51bb30cff5e1ac71c97a5842ec94fbb6af6040518080602001828103825260378152602001807f50726f6a65637420646561646c696e65206d757374206265206772656174657281526020017f207468616e207468652063757272656e7420626c6f636b00000000000000000081525060400191505060405180910390a1600080fd5b848484336103da610a79565b80858152602001848152602001806020018373ffffffffffffffffffffffffffffffffffffffff1673ffffffffffffffffffffffffffffffffffffffff168152602001828103825284818151815260200191508051906020019080838360005b8381101561045557808201518184015260208101905061043a565b50505050905090810190601f1680156104825780820380516001836020036101000a031916815260200191505b5095505050505050604051809103906000f0801580156104a6573d6000803e3d6000fd5b5090508060026000600154815260200190815260200160002060006101000a81548173ffffffffffffffffffffffffffffffffffffffff021916908373ffffffffffffffffffffffffffffffffffffffff1602179055507fba62717de6e28c9ba72e0123d5205f96439a8d3299c4740990788bba49faf37f60015484833360405180858152602001806020018473ffffffffffffffffffffffffffffffffffffffff1673ffffffffffffffffffffffffffffffffffffffff1681526020018373ffffffffffffffffffffffffffffffffffffffff1673ffffffffffffffffffffffffffffffffffffffff168152602001828103825285818151815260200191508051906020019080838360005b838110156105ce5780820151818401526020810190506105b3565b50505050905090810190601f1680156105fb5780820380516001836020036101000a031916815260200191505b509550505050505060405180910390a1600160008154809291906001019190505550809150509392505050565b6000806000341115156106c8577fa2db52a45d71264723caeac03c235d51bb30cff5e1ac71c97a5842ec94fbb6af6040518080602001828103825260288152602001807f436f6e747269627574696f6e73206d757374206265206772656174657220746881526020017f616e20302077656900000000000000000000000000000000000000000000000081525060400191505060405180910390a1600080fd5b829050600073ffffffffffffffffffffffffffffffffffffffff168173ffffffffffffffffffffffffffffffffffffffff1663f9b8057f6040518163ffffffff167c0100000000000000000000000000000000000000000000000000000000028152600401602060405180830381600087803b15801561074757600080fd5b505af115801561075b573d6000803e3d6000fd5b505050506040513d602081101561077157600080fd5b810190808051906020019092919050505073ffffffffffffffffffffffffffffffffffffffff161415610831577fa2db52a45d71264723caeac03c235d51bb30cff5e1ac71c97a5842ec94fbb6af6040518080602001828103825260258152602001807f50726f6a65637420636f6e7472616374206e6f7420666f756e6420617420616481526020017f647265737300000000000000000000000000000000000000000000000000000081525060400191505060405180910390a1600080fd5b8073ffffffffffffffffffffffffffffffffffffffff16632302440834336040518363ffffffff167c0100000000000000000000000000000000000000000000000000000000028152600401808273ffffffffffffffffffffffffffffffffffffffff1673ffffffffffffffffffffffffffffffffffffffff1681526020019150506020604051808303818588803b1580156108cc57600080fd5b505af11580156108e0573d6000803e3d6000fd5b50505050506040513d60208110156108f757600080fd5b8101908080519060200190929190505050156109b5577f39f7b6bb5cccf15345de2c840895996ec35ca04ec42a98491662b55aa34421b4833334604051808473ffffffffffffffffffffffffffffffffffffffff1673ffffffffffffffffffffffffffffffffffffffff1681526020018373ffffffffffffffffffffffffffffffffffffffff1673ffffffffffffffffffffffffffffffffffffffff168152602001828152602001935050505060405180910390a160019150610a48565b7fa2db52a45d71264723caeac03c235d51bb30cff5e1ac71c97a5842ec94fbb6af6040518080602001828103825260268152602001807f436f6e747269627574696f6e20646964206e6f742073656e642073756363657381526020017f7366756c6c79000000000000000000000000000000000000000000000000000081525060400191505060405180910390a1600091505b50919050565b60015481565b6000809054906101000a900473ffffffffffffffffffffffffffffffffffffffff1681565b60405161184680610a8a83390190560060806040523480156200001157600080fd5b50604051620018463803806200184683398101806040528101908080519060200190929190805190602001909291908051820192919060200180519060200190929190505050600084111515620000f5577fa2db52a45d71264723caeac03c235d51bb30cff5e1ac71c97a5842ec94fbb6af60405180806020018281038252602b8152602001807f50726f6a6563742066756e64696e6720676f616c206d7573742062652067726581526020017f61746572207468616e203000000000000000000000000000000000000000000081525060400191505060405180910390a1600080fd5b824310151562000192577fa2db52a45d71264723caeac03c235d51bb30cff5e1ac71c97a5842ec94fbb6af6040518080602001828103825260378152602001807f50726f6a65637420646561646c696e65206d757374206265206772656174657281526020017f207468616e207468652063757272656e7420626c6f636b00000000000000000081525060400191505060405180910390a1600080fd5b60008173ffffffffffffffffffffffffffffffffffffffff16141562000245577fa2db52a45d71264723caeac03c235d51bb30cff5e1ac71c97a5842ec94fbb6af60405180806020018281038252602c8152602001807f50726f6a656374206d75737420696e636c75646520612076616c69642063726581526020017f61746f722061646472657373000000000000000000000000000000000000000081525060400191505060405180910390a1600080fd5b336000806101000a81548173ffffffffffffffffffffffffffffffffffffffff021916908373ffffffffffffffffffffffffffffffffffffffff1602179055506080604051908101604052808581526020018481526020018381526020018273ffffffffffffffffffffffffffffffffffffffff16815250600660008201518160000155602082015181600101556040820151816002019080519060200190620002f19291906200035e565b5060608201518160030160006101000a81548173ffffffffffffffffffffffffffffffffffffffff021916908373ffffffffffffffffffffffffffffffffffffffff160217905550905050600060038190555060006004819055506000600581905550505050506200040d565b828054600181600116156101000203166002900490600052602060002090601f016020900481019282601f10620003a157805160ff1916838001178555620003d2565b82800160010185558215620003d2579182015b82811115620003d1578251825591602001919060010190620003b4565b5b509050620003e19190620003e5565b5090565b6200040a91905b8082111562000406576000816000905550600101620003ec565b5090565b90565b611429806200041d6000396000f3006080604052600436106100c5576000357c0100000000000000000000000000000000000000000000000000000000900463ffffffff1680631cee0700146100ca5780631f6d49421461013e578063230244081461019557806338658175146101e357806341c0e1b51461020e578063590e1ae31461022557806363bd1d4a146102475780636e57b700146102695780637569b3d7146103b5578063cef42254146103e0578063f9b8057f14610454578063fcd802b1146104ab578063fe47a8a71461057c575b600080fd5b3480156100d657600080fd5b506100f5600480360381019080803590602001909291905050506105a7565b604051808381526020018273ffffffffffffffffffffffffffffffffffffffff1673ffffffffffffffffffffffffffffffffffffffff1681526020019250505060405180910390f35b34801561014a57600080fd5b5061017f600480360381019080803573ffffffffffffffffffffffffffffffffffffffff1690602001909291905050506105eb565b6040518082815260200191505060405180910390f35b6101c9600480360381019080803573ffffffffffffffffffffffffffffffffffffffff169060200190929190505050610603565b604051808215151515815260200191505060405180910390f35b3480156101ef57600080fd5b506101f8610ce1565b6040518082815260200191505060405180910390f35b34801561021a57600080fd5b50610223610ce7565b005b61022d610d7d565b604051808215151515815260200191505060405180910390f35b61024f6110e1565b604051808215151515815260200191505060405180910390f35b34801561027557600080fd5b5061027e61117e565b60405180806020018a81526020018981526020018873ffffffffffffffffffffffffffffffffffffffff1673ffffffffffffffffffffffffffffffffffffffff1681526020018781526020018681526020018581526020018473ffffffffffffffffffffffffffffffffffffffff1673ffffffffffffffffffffffffffffffffffffffff1681526020018373ffffffffffffffffffffffffffffffffffffffff1673ffffffffffffffffffffffffffffffffffffffff16815260200182810382528b818151815260200191508051906020019080838360005b83811015610372578082015181840152602081019050610357565b50505050905090810190601f16801561039f5780820380516001836020036101000a031916815260200191505b509a505050505050505050505060405180910390f35b3480156103c157600080fd5b506103ca6112a8565b6040518082815260200191505060405180910390f35b3480156103ec57600080fd5b5061040b600480360381019080803590602001909291905050506112ae565b604051808381526020018273ffffffffffffffffffffffffffffffffffffffff1673ffffffffffffffffffffffffffffffffffffffff1681526020019250505060405180910390f35b34801561046057600080fd5b506104696112fc565b604051808273ffffffffffffffffffffffffffffffffffffffff1673ffffffffffffffffffffffffffffffffffffffff16815260200191505060405180910390f35b3480156104b757600080fd5b506104c0611321565b60405180858152602001848152602001806020018373ffffffffffffffffffffffffffffffffffffffff1673ffffffffffffffffffffffffffffffffffffffff168152602001828103825284818151815260200191508051906020019080838360005b8381101561053e578082015181840152602081019050610523565b50505050905090810190601f16801561056b5780820380516001836020036101000a031916815260200191505b509550505050505060405180910390f35b34801561058857600080fd5b506105916113f7565b6040518082815260200191505060405180910390f35b60026020528060005260406000206000915090508060000154908060010160009054906101000a900473ffffffffffffffffffffffffffffffffffffffff16905082565b60016020528060005260406000206000915090505481565b600080600080341115156106a4577fa2db52a45d71264723caeac03c235d51bb30cff5e1ac71c97a5842ec94fbb6af6040518080602001828103825260308152602001807f46756e64696e6720636f6e747269627574696f6e73206d75737420626520677281526020017f6561746572207468616e2030207765690000000000000000000000000000000081525060400191505060405180910390a1600080fd5b6000809054906101000a900473ffffffffffffffffffffffffffffffffffffffff1673ffffffffffffffffffffffffffffffffffffffff163373ffffffffffffffffffffffffffffffffffffffff161415156107b3577fa2db52a45d71264723caeac03c235d51bb30cff5e1ac71c97a5842ec94fbb6af6040518080602001828103825260428152602001807f46756e64696e6720636f6e747269627574696f6e732063616e206f6e6c79206281526020017f65206d616465207468726f7567682046756e64696e6748756220636f6e74726181526020017f637400000000000000000000000000000000000000000000000000000000000081525060600191505060405180910390a1600080fd5b60066001015443111561090e577f06a029cfeb9ba6076c9c728f3ac5eb2de5535c866f145b0679a2f5fb2afcae6130600354600454604051808473ffffffffffffffffffffffffffffffffffffffff1673ffffffffffffffffffffffffffffffffffffffff168152602001838152602001828152602001935050505060405180910390a18373ffffffffffffffffffffffffffffffffffffffff166108fc349081150290604051600060405180830381858888f193505050501515610905577fa2db52a45d71264723caeac03c235d51bb30cff5e1ac71c97a5842ec94fbb6af60405180806020018281038252603b8152602001807f50726f6a65637420646561646c696e6520686173207061737365642c2070726f81526020017f626c656d2072657475726e696e6720636f6e747269627574696f6e000000000081525060400191505060405180910390a1600080fd5b60009250610cda565b600660000154600354101515610a75577ff2f86ff1ec83177c1a8bfc8a746ed87b25fb731cd937a710b77139e477d2ab4230600354600454604051808473ffffffffffffffffffffffffffffffffffffffff1673ffffffffffffffffffffffffffffffffffffffff168152602001838152602001828152602001935050505060405180910390a18373ffffffffffffffffffffffffffffffffffffffff166108fc349081150290604051600060405180830381858888f193505050501515610a63577fa2db52a45d71264723caeac03c235d51bb30cff5e1ac71c97a5842ec94fbb6af60405180806020018281038252603b8152602001807f50726f6a65637420646561646c696e6520686173207061737365642c2070726f81526020017f626c656d2072657475726e696e6720636f6e747269627574696f6e000000000081525060400191505060405180910390a1600080fd5b610a6b6110e1565b5060009250610cda565b600160008573ffffffffffffffffffffffffffffffffffffffff1673ffffffffffffffffffffffffffffffffffffffff1681526020019081526020016000205491506002600060045481526020019081526020016000209050838160010160006101000a81548173ffffffffffffffffffffffffffffffffffffffff021916908373ffffffffffffffffffffffffffffffffffffffff16021790555034816000018190555034600160008673ffffffffffffffffffffffffffffffffffffffff1673ffffffffffffffffffffffffffffffffffffffff16815260200190815260200160002060008282540192505081905550346003600082825401925050819055506004600081548092919060010191905055506000821415610ba5576005600081548092919060010191905055505b7f1613ab8aabab6179e17fac6982185658b18ef4166931650cf8a2d5ed1a987aeb308534604051808473ffffffffffffffffffffffffffffffffffffffff1673ffffffffffffffffffffffffffffffffffffffff1681526020018373ffffffffffffffffffffffffffffffffffffffff1673ffffffffffffffffffffffffffffffffffffffff168152602001828152602001935050505060405180910390a1600660000154600354101515610cd5577ff2f86ff1ec83177c1a8bfc8a746ed87b25fb731cd937a710b77139e477d2ab4230600354600454604051808473ffffffffffffffffffffffffffffffffffffffff1673ffffffffffffffffffffffffffffffffffffffff168152602001838152602001828152602001935050505060405180910390a1610cd36110e1565b505b600192505b5050919050565b60045481565b3373ffffffffffffffffffffffffffffffffffffffff166000809054906101000a900473ffffffffffffffffffffffffffffffffffffffff1673ffffffffffffffffffffffffffffffffffffffff1614151515610d4357600080fd5b6000809054906101000a900473ffffffffffffffffffffffffffffffffffffffff1673ffffffffffffffffffffffffffffffffffffffff16ff5b600080600660010154431015610e20577fa2db52a45d71264723caeac03c235d51bb30cff5e1ac71c97a5842ec94fbb6af6040518080602001828103825260338152602001807f526566756e64206973206f6e6c7920706f737369626c652069662070726f6a6581526020017f6374206973207061737420646561646c696e650000000000000000000000000081525060400191505060405180910390a1600080fd5b600660000154600354101515610ec3577fa2db52a45d71264723caeac03c235d51bb30cff5e1ac71c97a5842ec94fbb6af60405180806020018281038252602e8152602001807f526566756e64206973206e6f7420706f737369626c652069662070726f6a656381526020017f7420686173206d657420676f616c00000000000000000000000000000000000081525060400191505060405180910390a1600080fd5b600160003373ffffffffffffffffffffffffffffffffffffffff1673ffffffffffffffffffffffffffffffffffffffff1681526020019081526020016000205490506000600160003373ffffffffffffffffffffffffffffffffffffffff1673ffffffffffffffffffffffffffffffffffffffff168152602001908152602001600020819055503373ffffffffffffffffffffffffffffffffffffffff166108fc829081150290604051600060405180830381858888f193505050501561102c577f5912b7ad61865e7a6d5dcaa41e58e9563c7e286fc42999b67e1773e6b76e322d303383604051808473ffffffffffffffffffffffffffffffffffffffff1673ffffffffffffffffffffffffffffffffffffffff1681526020018373ffffffffffffffffffffffffffffffffffffffff1673ffffffffffffffffffffffffffffffffffffffff168152602001828152602001935050505060405180910390a1600191506110dd565b80600160003373ffffffffffffffffffffffffffffffffffffffff1673ffffffffffffffffffffffffffffffffffffffff168152602001908152602001600020819055507fa2db52a45d71264723caeac03c235d51bb30cff5e1ac71c97a5842ec94fbb6af6040518080602001828103825260208152602001807f526566756e6420646964206e6f742073656e64207375636365737366756c6c7981525060200191505060405180910390a1600091505b5090565b6000806006600001546003541015156110f957600080fd5b60035490506000600381905550600660030160009054906101000a900473ffffffffffffffffffffffffffffffffffffffff1673ffffffffffffffffffffffffffffffffffffffff166108fc829081150290604051600060405180830381858888f193505050501561116e576001915061117a565b80600381905550600091505b5090565b60606000806000806000806000806006600201600660000154600660010154600660030160009054906101000a900473ffffffffffffffffffffffffffffffffffffffff166003546004546005546000809054906101000a900473ffffffffffffffffffffffffffffffffffffffff1630888054600181600116156101000203166002900480601f0160208091040260200160405190810160405280929190818152602001828054600181600116156101000203166002900480156112845780601f1061125957610100808354040283529160200191611284565b820191906000526020600020905b81548152906001019060200180831161126757829003601f168201915b50505050509850985098509850985098509850985098509850909192939495969798565b60055481565b600080600060026000858152602001908152602001600020905080600001548160010160009054906101000a900473ffffffffffffffffffffffffffffffffffffffff169250925050915091565b6000809054906101000a900473ffffffffffffffffffffffffffffffffffffffff1681565b6006806000015490806001015490806002018054600181600116156101000203166002900480601f0160208091040260200160405190810160405280929190818152602001828054600181600116156101000203166002900480156113c75780601f1061139c576101008083540402835291602001916113c7565b820191906000526020600020905b8154815290600101906020018083116113aa57829003601f168201915b5050505050908060030160009054906101000a900473ffffffffffffffffffffffffffffffffffffffff16905084565b600354815600a165627a7a7230582008100b6dc2751e9cbf39bb14187da4a7e7cc9a27926cc82696ecc3bfe8946a9b0029a165627a7a72305820a2215210ba06d1feddff9af4a41c5f14d945d7bb3a3004e2be309af86c04c15a0029",
  "source": "pragma solidity ^0.4.24;\r\n\r\nimport \"./Project.sol\";\r\n\r\ncontract FundingHub {\r\n\r\n    address public owner;\r\n    uint public numOfProjects;\r\n\r\n    mapping (uint => address) public projects;\r\n\r\n    event LogProjectCreated(uint id, string title, address addr, address creator);\r\n    event LogContributionSent(address projectAddress, address contributor, uint amount);\r\n\r\n    event LogFailure(string message);\r\n\r\n    modifier onlyOwner {\r\n        require(owner != msg.sender);\r\n        _;\r\n    }\r\n\r\n    function FundingHub() {\r\n        owner = msg.sender;\r\n        numOfProjects = 0;\r\n    }\r\n\r\n    function createProject(uint _fundingGoal, uint _deadline, string _title) payable returns (Project projectAddress) {\r\n\r\n        if (_fundingGoal <= 0) {\r\n            LogFailure(\"Project funding goal must be greater than 0\");\r\n            revert();\r\n        }\r\n\r\n        if (block.number >= _deadline) {\r\n            LogFailure(\"Project deadline must be greater than the current block\");\r\n            revert();\r\n        }\r\n\r\n        Project p = new Project(_fundingGoal, _deadline, _title, msg.sender);\r\n        projects[numOfProjects] = p;\r\n        LogProjectCreated(numOfProjects, _title, p, msg.sender);\r\n        numOfProjects++;\r\n        return p;\r\n    }\r\n\r\n    function contribute(address _projectAddress) payable returns (bool successful) {\r\n\r\n        if (msg.value <= 0) {\r\n            LogFailure(\"Contributions must be greater than 0 wei\");\r\n            revert();\r\n        }\r\n\r\n        Project deployedProject = Project(_projectAddress);\r\n\r\n        if (deployedProject.fundingHub() == address(0)) {\r\n            LogFailure(\"Project contract not found at address\");\r\n            revert();\r\n        }\r\n\r\n        if (deployedProject.fund.value(msg.value)(msg.sender)) {\r\n            LogContributionSent(_projectAddress, msg.sender, msg.value);\r\n            return true;\r\n        } else {\r\n            LogFailure(\"Contribution did not send successfully\");\r\n            return false;\r\n        }\r\n    }\r\n\r\n}\r\n",
  "sourcePath": "C:\\Users\\jeoun\\cf\\contracts\\FundingHub.sol",
  "compiler": {
    "name": "solc",
    "version": "0.4.24+commit.e67f0147.Emscripten.clang"
  },
  "schemaVersion": "2.0.1",
  "updatedAt": "2018-08-14T00:42:54.588Z"
}