{
  "contractName": "Project",
  "abi": [
    {
      "constant": true,
      "inputs": [
        {
          "name": "",
          "type": "uint256"
        }
      ],
      "name": "contributions",
      "outputs": [
        {
          "name": "amount",
          "type": "uint256"
        },
        {
          "name": "contributor",
          "type": "address"
        }
      ],
      "payable": false,
      "stateMutability": "view",
      "type": "function"
    },
    {
      "constant": true,
      "inputs": [
        {
          "name": "",
          "type": "address"
        }
      ],
      "name": "contributors",
      "outputs": [
        {
          "name": "",
          "type": "uint256"
        }
      ],
      "payable": false,
      "stateMutability": "view",
      "type": "function"
    },
    {
      "constant": true,
      "inputs": [],
      "name": "contributionsCount",
      "outputs": [
        {
          "name": "",
          "type": "uint256"
        }
      ],
      "payable": false,
      "stateMutability": "view",
      "type": "function"
    },
    {
      "constant": true,
      "inputs": [],
      "name": "contributorsCount",
      "outputs": [
        {
          "name": "",
          "type": "uint256"
        }
      ],
      "payable": false,
      "stateMutability": "view",
      "type": "function"
    },
    {
      "constant": true,
      "inputs": [],
      "name": "fundingHub",
      "outputs": [
        {
          "name": "",
          "type": "address"
        }
      ],
      "payable": false,
      "stateMutability": "view",
      "type": "function"
    },
    {
      "constant": true,
      "inputs": [],
      "name": "properties",
      "outputs": [
        {
          "name": "goal",
          "type": "uint256"
        },
        {
          "name": "deadline",
          "type": "uint256"
        },
        {
          "name": "title",
          "type": "string"
        },
        {
          "name": "creator",
          "type": "address"
        }
      ],
      "payable": false,
      "stateMutability": "view",
      "type": "function"
    },
    {
      "constant": true,
      "inputs": [],
      "name": "totalFunding",
      "outputs": [
        {
          "name": "",
          "type": "uint256"
        }
      ],
      "payable": false,
      "stateMutability": "view",
      "type": "function"
    },
    {
      "inputs": [
        {
          "name": "_fundingGoal",
          "type": "uint256"
        },
        {
          "name": "_deadline",
          "type": "uint256"
        },
        {
          "name": "_title",
          "type": "string"
        },
        {
          "name": "_creator",
          "type": "address"
        }
      ],
      "payable": false,
      "stateMutability": "nonpayable",
      "type": "constructor"
    },
    {
      "anonymous": false,
      "inputs": [
        {
          "indexed": false,
          "name": "projectAddress",
          "type": "address"
        },
        {
          "indexed": false,
          "name": "contributor",
          "type": "address"
        },
        {
          "indexed": false,
          "name": "amount",
          "type": "uint256"
        }
      ],
      "name": "LogContributionReceived",
      "type": "event"
    },
    {
      "anonymous": false,
      "inputs": [
        {
          "indexed": false,
          "name": "projectAddress",
          "type": "address"
        },
        {
          "indexed": false,
          "name": "owner",
          "type": "address"
        },
        {
          "indexed": false,
          "name": "totalPayout",
          "type": "uint256"
        }
      ],
      "name": "LogPayoutInitiated",
      "type": "event"
    },
    {
      "anonymous": false,
      "inputs": [
        {
          "indexed": false,
          "name": "projectAddress",
          "type": "address"
        },
        {
          "indexed": false,
          "name": "contributor",
          "type": "address"
        },
        {
          "indexed": false,
          "name": "refundAmount",
          "type": "uint256"
        }
      ],
      "name": "LogRefundIssued",
      "type": "event"
    },
    {
      "anonymous": false,
      "inputs": [
        {
          "indexed": false,
          "name": "projectAddress",
          "type": "address"
        },
        {
          "indexed": false,
          "name": "totalFunding",
          "type": "uint256"
        },
        {
          "indexed": false,
          "name": "totalContributions",
          "type": "uint256"
        }
      ],
      "name": "LogFundingGoalReached",
      "type": "event"
    },
    {
      "anonymous": false,
      "inputs": [
        {
          "indexed": false,
          "name": "projectAddress",
          "type": "address"
        },
        {
          "indexed": false,
          "name": "totalFunding",
          "type": "uint256"
        },
        {
          "indexed": false,
          "name": "totalContributions",
          "type": "uint256"
        }
      ],
      "name": "LogFundingFailed",
      "type": "event"
    },
    {
      "anonymous": false,
      "inputs": [
        {
          "indexed": false,
          "name": "message",
          "type": "string"
        }
      ],
      "name": "LogFailure",
      "type": "event"
    },
    {
      "constant": false,
      "inputs": [],
      "name": "getProject",
      "outputs": [
        {
          "name": "",
          "type": "string"
        },
        {
          "name": "",
          "type": "uint256"
        },
        {
          "name": "",
          "type": "uint256"
        },
        {
          "name": "",
          "type": "address"
        },
        {
          "name": "",
          "type": "uint256"
        },
        {
          "name": "",
          "type": "uint256"
        },
        {
          "name": "",
          "type": "uint256"
        },
        {
          "name": "",
          "type": "address"
        },
        {
          "name": "",
          "type": "address"
        }
      ],
      "payable": false,
      "stateMutability": "nonpayable",
      "type": "function"
    },
    {
      "constant": false,
      "inputs": [
        {
          "name": "_id",
          "type": "uint256"
        }
      ],
      "name": "getContribution",
      "outputs": [
        {
          "name": "",
          "type": "uint256"
        },
        {
          "name": "",
          "type": "address"
        }
      ],
      "payable": false,
      "stateMutability": "nonpayable",
      "type": "function"
    },
    {
      "constant": false,
      "inputs": [
        {
          "name": "_contributor",
          "type": "address"
        }
      ],
      "name": "fund",
      "outputs": [
        {
          "name": "successful",
          "type": "bool"
        }
      ],
      "payable": true,
      "stateMutability": "payable",
      "type": "function"
    },
    {
      "constant": false,
      "inputs": [],
      "name": "payout",
      "outputs": [
        {
          "name": "successful",
          "type": "bool"
        }
      ],
      "payable": true,
      "stateMutability": "payable",
      "type": "function"
    },
    {
      "constant": false,
      "inputs": [],
      "name": "refund",
      "outputs": [
        {
          "name": "successful",
          "type": "bool"
        }
      ],
      "payable": true,
      "stateMutability": "payable",
      "type": "function"
    },
    {
      "constant": false,
      "inputs": [],
      "name": "kill",
      "outputs": [],
      "payable": false,
      "stateMutability": "nonpayable",
      "type": "function"
    }
  ],
  "bytecode": "0x60806040523480156200001157600080fd5b50604051620018463803806200184683398101806040528101908080519060200190929190805190602001909291908051820192919060200180519060200190929190505050600084111515620000f5577fa2db52a45d71264723caeac03c235d51bb30cff5e1ac71c97a5842ec94fbb6af60405180806020018281038252602b8152602001807f50726f6a6563742066756e64696e6720676f616c206d7573742062652067726581526020017f61746572207468616e203000000000000000000000000000000000000000000081525060400191505060405180910390a1600080fd5b824310151562000192577fa2db52a45d71264723caeac03c235d51bb30cff5e1ac71c97a5842ec94fbb6af6040518080602001828103825260378152602001807f50726f6a65637420646561646c696e65206d757374206265206772656174657281526020017f207468616e207468652063757272656e7420626c6f636b00000000000000000081525060400191505060405180910390a1600080fd5b60008173ffffffffffffffffffffffffffffffffffffffff16141562000245577fa2db52a45d71264723caeac03c235d51bb30cff5e1ac71c97a5842ec94fbb6af60405180806020018281038252602c8152602001807f50726f6a656374206d75737420696e636c75646520612076616c69642063726581526020017f61746f722061646472657373000000000000000000000000000000000000000081525060400191505060405180910390a1600080fd5b336000806101000a81548173ffffffffffffffffffffffffffffffffffffffff021916908373ffffffffffffffffffffffffffffffffffffffff1602179055506080604051908101604052808581526020018481526020018381526020018273ffffffffffffffffffffffffffffffffffffffff16815250600660008201518160000155602082015181600101556040820151816002019080519060200190620002f19291906200035e565b5060608201518160030160006101000a81548173ffffffffffffffffffffffffffffffffffffffff021916908373ffffffffffffffffffffffffffffffffffffffff160217905550905050600060038190555060006004819055506000600581905550505050506200040d565b828054600181600116156101000203166002900490600052602060002090601f016020900481019282601f10620003a157805160ff1916838001178555620003d2565b82800160010185558215620003d2579182015b82811115620003d1578251825591602001919060010190620003b4565b5b509050620003e19190620003e5565b5090565b6200040a91905b8082111562000406576000816000905550600101620003ec565b5090565b90565b611429806200041d6000396000f3006080604052600436106100c5576000357c0100000000000000000000000000000000000000000000000000000000900463ffffffff1680631cee0700146100ca5780631f6d49421461013e578063230244081461019557806338658175146101e357806341c0e1b51461020e578063590e1ae31461022557806363bd1d4a146102475780636e57b700146102695780637569b3d7146103b5578063cef42254146103e0578063f9b8057f14610454578063fcd802b1146104ab578063fe47a8a71461057c575b600080fd5b3480156100d657600080fd5b506100f5600480360381019080803590602001909291905050506105a7565b604051808381526020018273ffffffffffffffffffffffffffffffffffffffff1673ffffffffffffffffffffffffffffffffffffffff1681526020019250505060405180910390f35b34801561014a57600080fd5b5061017f600480360381019080803573ffffffffffffffffffffffffffffffffffffffff1690602001909291905050506105eb565b6040518082815260200191505060405180910390f35b6101c9600480360381019080803573ffffffffffffffffffffffffffffffffffffffff169060200190929190505050610603565b604051808215151515815260200191505060405180910390f35b3480156101ef57600080fd5b506101f8610ce1565b6040518082815260200191505060405180910390f35b34801561021a57600080fd5b50610223610ce7565b005b61022d610d7d565b604051808215151515815260200191505060405180910390f35b61024f6110e1565b604051808215151515815260200191505060405180910390f35b34801561027557600080fd5b5061027e61117e565b60405180806020018a81526020018981526020018873ffffffffffffffffffffffffffffffffffffffff1673ffffffffffffffffffffffffffffffffffffffff1681526020018781526020018681526020018581526020018473ffffffffffffffffffffffffffffffffffffffff1673ffffffffffffffffffffffffffffffffffffffff1681526020018373ffffffffffffffffffffffffffffffffffffffff1673ffffffffffffffffffffffffffffffffffffffff16815260200182810382528b818151815260200191508051906020019080838360005b83811015610372578082015181840152602081019050610357565b50505050905090810190601f16801561039f5780820380516001836020036101000a031916815260200191505b509a505050505050505050505060405180910390f35b3480156103c157600080fd5b506103ca6112a8565b6040518082815260200191505060405180910390f35b3480156103ec57600080fd5b5061040b600480360381019080803590602001909291905050506112ae565b604051808381526020018273ffffffffffffffffffffffffffffffffffffffff1673ffffffffffffffffffffffffffffffffffffffff1681526020019250505060405180910390f35b34801561046057600080fd5b506104696112fc565b604051808273ffffffffffffffffffffffffffffffffffffffff1673ffffffffffffffffffffffffffffffffffffffff16815260200191505060405180910390f35b3480156104b757600080fd5b506104c0611321565b60405180858152602001848152602001806020018373ffffffffffffffffffffffffffffffffffffffff1673ffffffffffffffffffffffffffffffffffffffff168152602001828103825284818151815260200191508051906020019080838360005b8381101561053e578082015181840152602081019050610523565b50505050905090810190601f16801561056b5780820380516001836020036101000a031916815260200191505b509550505050505060405180910390f35b34801561058857600080fd5b506105916113f7565b6040518082815260200191505060405180910390f35b60026020528060005260406000206000915090508060000154908060010160009054906101000a900473ffffffffffffffffffffffffffffffffffffffff16905082565b60016020528060005260406000206000915090505481565b600080600080341115156106a4577fa2db52a45d71264723caeac03c235d51bb30cff5e1ac71c97a5842ec94fbb6af6040518080602001828103825260308152602001807f46756e64696e6720636f6e747269627574696f6e73206d75737420626520677281526020017f6561746572207468616e2030207765690000000000000000000000000000000081525060400191505060405180910390a1600080fd5b6000809054906101000a900473ffffffffffffffffffffffffffffffffffffffff1673ffffffffffffffffffffffffffffffffffffffff163373ffffffffffffffffffffffffffffffffffffffff161415156107b3577fa2db52a45d71264723caeac03c235d51bb30cff5e1ac71c97a5842ec94fbb6af6040518080602001828103825260428152602001807f46756e64696e6720636f6e747269627574696f6e732063616e206f6e6c79206281526020017f65206d616465207468726f7567682046756e64696e6748756220636f6e74726181526020017f637400000000000000000000000000000000000000000000000000000000000081525060600191505060405180910390a1600080fd5b60066001015443111561090e577f06a029cfeb9ba6076c9c728f3ac5eb2de5535c866f145b0679a2f5fb2afcae6130600354600454604051808473ffffffffffffffffffffffffffffffffffffffff1673ffffffffffffffffffffffffffffffffffffffff168152602001838152602001828152602001935050505060405180910390a18373ffffffffffffffffffffffffffffffffffffffff166108fc349081150290604051600060405180830381858888f193505050501515610905577fa2db52a45d71264723caeac03c235d51bb30cff5e1ac71c97a5842ec94fbb6af60405180806020018281038252603b8152602001807f50726f6a65637420646561646c696e6520686173207061737365642c2070726f81526020017f626c656d2072657475726e696e6720636f6e747269627574696f6e000000000081525060400191505060405180910390a1600080fd5b60009250610cda565b600660000154600354101515610a75577ff2f86ff1ec83177c1a8bfc8a746ed87b25fb731cd937a710b77139e477d2ab4230600354600454604051808473ffffffffffffffffffffffffffffffffffffffff1673ffffffffffffffffffffffffffffffffffffffff168152602001838152602001828152602001935050505060405180910390a18373ffffffffffffffffffffffffffffffffffffffff166108fc349081150290604051600060405180830381858888f193505050501515610a63577fa2db52a45d71264723caeac03c235d51bb30cff5e1ac71c97a5842ec94fbb6af60405180806020018281038252603b8152602001807f50726f6a65637420646561646c696e6520686173207061737365642c2070726f81526020017f626c656d2072657475726e696e6720636f6e747269627574696f6e000000000081525060400191505060405180910390a1600080fd5b610a6b6110e1565b5060009250610cda565b600160008573ffffffffffffffffffffffffffffffffffffffff1673ffffffffffffffffffffffffffffffffffffffff1681526020019081526020016000205491506002600060045481526020019081526020016000209050838160010160006101000a81548173ffffffffffffffffffffffffffffffffffffffff021916908373ffffffffffffffffffffffffffffffffffffffff16021790555034816000018190555034600160008673ffffffffffffffffffffffffffffffffffffffff1673ffffffffffffffffffffffffffffffffffffffff16815260200190815260200160002060008282540192505081905550346003600082825401925050819055506004600081548092919060010191905055506000821415610ba5576005600081548092919060010191905055505b7f1613ab8aabab6179e17fac6982185658b18ef4166931650cf8a2d5ed1a987aeb308534604051808473ffffffffffffffffffffffffffffffffffffffff1673ffffffffffffffffffffffffffffffffffffffff1681526020018373ffffffffffffffffffffffffffffffffffffffff1673ffffffffffffffffffffffffffffffffffffffff168152602001828152602001935050505060405180910390a1600660000154600354101515610cd5577ff2f86ff1ec83177c1a8bfc8a746ed87b25fb731cd937a710b77139e477d2ab4230600354600454604051808473ffffffffffffffffffffffffffffffffffffffff1673ffffffffffffffffffffffffffffffffffffffff168152602001838152602001828152602001935050505060405180910390a1610cd36110e1565b505b600192505b5050919050565b60045481565b3373ffffffffffffffffffffffffffffffffffffffff166000809054906101000a900473ffffffffffffffffffffffffffffffffffffffff1673ffffffffffffffffffffffffffffffffffffffff1614151515610d4357600080fd5b6000809054906101000a900473ffffffffffffffffffffffffffffffffffffffff1673ffffffffffffffffffffffffffffffffffffffff16ff5b600080600660010154431015610e20577fa2db52a45d71264723caeac03c235d51bb30cff5e1ac71c97a5842ec94fbb6af6040518080602001828103825260338152602001807f526566756e64206973206f6e6c7920706f737369626c652069662070726f6a6581526020017f6374206973207061737420646561646c696e650000000000000000000000000081525060400191505060405180910390a1600080fd5b600660000154600354101515610ec3577fa2db52a45d71264723caeac03c235d51bb30cff5e1ac71c97a5842ec94fbb6af60405180806020018281038252602e8152602001807f526566756e64206973206e6f7420706f737369626c652069662070726f6a656381526020017f7420686173206d657420676f616c00000000000000000000000000000000000081525060400191505060405180910390a1600080fd5b600160003373ffffffffffffffffffffffffffffffffffffffff1673ffffffffffffffffffffffffffffffffffffffff1681526020019081526020016000205490506000600160003373ffffffffffffffffffffffffffffffffffffffff1673ffffffffffffffffffffffffffffffffffffffff168152602001908152602001600020819055503373ffffffffffffffffffffffffffffffffffffffff166108fc829081150290604051600060405180830381858888f193505050501561102c577f5912b7ad61865e7a6d5dcaa41e58e9563c7e286fc42999b67e1773e6b76e322d303383604051808473ffffffffffffffffffffffffffffffffffffffff1673ffffffffffffffffffffffffffffffffffffffff1681526020018373ffffffffffffffffffffffffffffffffffffffff1673ffffffffffffffffffffffffffffffffffffffff168152602001828152602001935050505060405180910390a1600191506110dd565b80600160003373ffffffffffffffffffffffffffffffffffffffff1673ffffffffffffffffffffffffffffffffffffffff168152602001908152602001600020819055507fa2db52a45d71264723caeac03c235d51bb30cff5e1ac71c97a5842ec94fbb6af6040518080602001828103825260208152602001807f526566756e6420646964206e6f742073656e64207375636365737366756c6c7981525060200191505060405180910390a1600091505b5090565b6000806006600001546003541015156110f957600080fd5b60035490506000600381905550600660030160009054906101000a900473ffffffffffffffffffffffffffffffffffffffff1673ffffffffffffffffffffffffffffffffffffffff166108fc829081150290604051600060405180830381858888f193505050501561116e576001915061117a565b80600381905550600091505b5090565b60606000806000806000806000806006600201600660000154600660010154600660030160009054906101000a900473ffffffffffffffffffffffffffffffffffffffff166003546004546005546000809054906101000a900473ffffffffffffffffffffffffffffffffffffffff1630888054600181600116156101000203166002900480601f0160208091040260200160405190810160405280929190818152602001828054600181600116156101000203166002900480156112845780601f1061125957610100808354040283529160200191611284565b820191906000526020600020905b81548152906001019060200180831161126757829003601f168201915b50505050509850985098509850985098509850985098509850909192939495969798565b60055481565b600080600060026000858152602001908152602001600020905080600001548160010160009054906101000a900473ffffffffffffffffffffffffffffffffffffffff169250925050915091565b6000809054906101000a900473ffffffffffffffffffffffffffffffffffffffff1681565b6006806000015490806001015490806002018054600181600116156101000203166002900480601f0160208091040260200160405190810160405280929190818152602001828054600181600116156101000203166002900480156113c75780601f1061139c576101008083540402835291602001916113c7565b820191906000526020600020905b8154815290600101906020018083116113aa57829003601f168201915b5050505050908060030160009054906101000a900473ffffffffffffffffffffffffffffffffffffffff16905084565b600354815600a165627a7a7230582008100b6dc2751e9cbf39bb14187da4a7e7cc9a27926cc82696ecc3bfe8946a9b0029",
  "source": "pragma solidity ^0.4.24;\r\n\r\ncontract Project {\r\n\r\n    struct Properties {\r\n        uint goal;\r\n        uint deadline;\r\n        string title;\r\n        address creator;\r\n    }\r\n\r\n    struct Contribution {\r\n        uint amount;\r\n        address contributor;\r\n    }\r\n\r\n    address public fundingHub;\r\n\r\n    mapping (address => uint) public contributors;\r\n    mapping (uint => Contribution) public contributions;\r\n\r\n    uint public totalFunding;\r\n    uint public contributionsCount;\r\n    uint public contributorsCount;\r\n\r\n    Properties public properties;\r\n\r\n    event LogContributionReceived(address projectAddress, address contributor, uint amount);\r\n    event LogPayoutInitiated(address projectAddress, address owner, uint totalPayout);\r\n    event LogRefundIssued(address projectAddress, address contributor, uint refundAmount);\r\n    event LogFundingGoalReached(address projectAddress, uint totalFunding, uint totalContributions);\r\n    event LogFundingFailed(address projectAddress, uint totalFunding, uint totalContributions);\r\n\r\n    event LogFailure(string message);\r\n\r\n    modifier onlyFundingHub {\r\n        require(fundingHub != msg.sender);\r\n        _;\r\n    }\r\n\r\n    modifier onlyFunded {\r\n        require(totalFunding < properties.goal);\r\n        _;\r\n    }\r\n\r\n    function Project(uint _fundingGoal, uint _deadline, string _title, address _creator) {\r\n\r\n        if (_fundingGoal <= 0) {\r\n            LogFailure(\"Project funding goal must be greater than 0\");\r\n            revert();\r\n        }\r\n\r\n        if (block.number >= _deadline) {\r\n            LogFailure(\"Project deadline must be greater than the current block\");\r\n            revert();\r\n        }\r\n\r\n        if (_creator == 0) {\r\n            LogFailure(\"Project must include a valid creator address\");\r\n            revert();\r\n        }\r\n\r\n        fundingHub = msg.sender;\r\n\r\n        properties = Properties({\r\n            goal: _fundingGoal,\r\n            deadline: _deadline,\r\n            title: _title,\r\n            creator: _creator\r\n        });\r\n\r\n        totalFunding = 0;\r\n        contributionsCount = 0;\r\n        contributorsCount = 0;\r\n    }\r\n\r\n    function getProject() returns (string, uint, uint, address, uint, uint, uint, address, address) {\r\n        return (properties.title,\r\n                properties.goal,\r\n                properties.deadline,\r\n                properties.creator,\r\n                totalFunding,\r\n                contributionsCount,\r\n                contributorsCount,\r\n                fundingHub,\r\n                address(this));\r\n    }\r\n\r\n    function getContribution(uint _id) returns (uint, address) {\r\n        Contribution c = contributions[_id];\r\n        return (c.amount, c.contributor);\r\n    }\r\n\r\n    function fund(address _contributor) payable returns (bool successful) {\r\n\r\n        if (msg.value <= 0) {\r\n            LogFailure(\"Funding contributions must be greater than 0 wei\");\r\n            revert();\r\n        }\r\n\r\n        if (msg.sender != fundingHub) {\r\n            LogFailure(\"Funding contributions can only be made through FundingHub contract\");\r\n            revert();\r\n        }\r\n\r\n        if (block.number > properties.deadline) {\r\n            LogFundingFailed(address(this), totalFunding, contributionsCount);\r\n            if (!_contributor.send(msg.value)) {\r\n                LogFailure(\"Project deadline has passed, problem returning contribution\");\r\n                revert();\r\n            }\r\n            return false;\r\n        }\r\n\r\n        if (totalFunding >= properties.goal) {\r\n            LogFundingGoalReached(address(this), totalFunding, contributionsCount);\r\n            if (!_contributor.send(msg.value)) {\r\n                LogFailure(\"Project deadline has passed, problem returning contribution\");\r\n               revert();\r\n            }\r\n            payout();\r\n            return false;\r\n        }\r\n\r\n        uint prevContributionBalance = contributors[_contributor];\r\n\r\n        Contribution c = contributions[contributionsCount];\r\n        c.contributor = _contributor;\r\n        c.amount = msg.value;\r\n\r\n        contributors[_contributor] += msg.value;\r\n\r\n        totalFunding += msg.value;\r\n        contributionsCount++;\r\n\r\n        if (prevContributionBalance == 0) {\r\n            contributorsCount++;\r\n        }\r\n\r\n        LogContributionReceived(this, _contributor, msg.value);\r\n\r\n        if (totalFunding >= properties.goal) {\r\n            LogFundingGoalReached(address(this), totalFunding, contributionsCount);\r\n            payout();\r\n        }\r\n\r\n        return true;\r\n    }\r\n\r\n    function payout() payable onlyFunded returns (bool successful) {\r\n        uint amount = totalFunding;\r\n\r\n        totalFunding = 0;\r\n\r\n        if (properties.creator.send(amount)) {\r\n            return true;\r\n        } else {\r\n            totalFunding = amount;\r\n            return false;\r\n        }\r\n\r\n        return true;\r\n    }\r\n\r\n    function refund() payable returns (bool successful) {\r\n\r\n        if (block.number < properties.deadline) {\r\n            LogFailure(\"Refund is only possible if project is past deadline\");\r\n            revert();\r\n        }\r\n\r\n        if (totalFunding >= properties.goal) {\r\n            LogFailure(\"Refund is not possible if project has met goal\");\r\n            revert();\r\n        }\r\n\r\n        uint amount = contributors[msg.sender];\r\n\r\n        contributors[msg.sender] = 0;\r\n\r\n        if (msg.sender.send(amount)) {\r\n            LogRefundIssued(address(this), msg.sender, amount);\r\n            return true;\r\n        } else {\r\n            contributors[msg.sender] = amount;\r\n            LogFailure(\"Refund did not send successfully\");\r\n            return false;\r\n        }\r\n        return true;\r\n    }\r\n\r\n    function kill() public onlyFundingHub {\r\n        selfdestruct(fundingHub);\r\n    }\r\n\r\n}\r\n",
  "sourcePath": "C:\\Users\\jeoun\\cf\\contracts\\Project.sol",
  "compiler": {
    "name": "solc",
    "version": "0.4.24+commit.e67f0147.Emscripten.clang"
  },
  "schemaVersion": "2.0.1",
  "updatedAt": "2018-08-14T00:42:19.017Z"
}